:0400000002001132B7
:03000B00020149A6
:20006A0075140C751500751637751714751805751904751A0C751B01751C00751D00751EEF
:1C008A0000D200C201D202C203C204C205C206C207C208C209C20AC20B02000ED0
:03000E0002026982
:2000A60020B41E74D8251C4024E51CFF04F51C7402B51C04C207D2067428B51C10D208807F
:2000C6000C751C00300602D207C206C20820B51D74D8251D4023E51DFF04F51D7402B51D98
:2000E60004C20AD2097428B51D0FD20B22751D00300902D20AC209C20B2205147418B51402
:2001060003751400220515743CB51509751500300003020100220516743CB5160975160082
:2001260030000302010B22051A7418B51A03751A0022051B743CB51B09751B0030000302BA
:20014600012D22C022C0E0C0F0C082C083C007C006C005C004C003C002C001C000C0D07571
:20016600D008758AD5758C3C30001D1517E5177010751714D20375D00012011C75D00880E5
:2001860007740AB51702C2031518E5187005751805B2041519E5197005751904D20575D00B
:2001A600001200A675D008D0D0D000D001D002D003D004D005D006D007D083D082D0F0D0C3
:2001C600E0D0223278FA79FAD8FED9FE22AE82AF83C007C0061201CAD006D007EE24FFFCDB
:2001E600EF34FFFD8C068D07EC4D70E52243B00F7F00EF2410F987908FF005F074018002E5
:2002060025E0D5F0FBF452B0C0071201CAD00743B00F0FBF040040DA22AF8230010E75F0BD
:200226000CEF84E5F0FE70067E0C80028F0675F00AEE849006D993FF8F1075F00AEE84E508
:20024600F09006D993FF8F112275900043B004758901758C3C758AD5D2B9D2A9D28CD2AFF4
:20026600D2B72212024F30022B300028E514B51A23E515B51B1EE516700A7409B51E02809B
:2002860003751E097409B51E15300304B2B7800ED2B7800A7409B51E05751E00D2B7E51E9F
:2002A60024F650030203DBE51E240B83F582E51E240E83F583E473DBD1AB856D5210E63A6D
:2002C600D103030303030303020302200706200A030203F9751E00D2B7C207C20A0203F924
:2002E600300608751E08C2060203F9300908120138C2090203F9200B030203F920050302AE
:2003060003F9120138C2050203F9300608751E07C2060203F930090812012DC2090203F9E3
:20032600200B030203F92005030203F912012DC2050203F9300608751E00C2060203F920A9
:2003460009030203F9B202C2090203F930080A751E06C206C2080203F92007030203F97508
:200366001E08C2070203F9300A08751E00C20A0203F92007030203F9B201C2070203F93019
:200386000609751E00C206D200806830090A12010B751600C209805B300B58300555120171
:2003A6000BC205804EC200300607751E03C206804230090A120100751600C2098035300BDC
:2003C6003230052F120100C2058028300A25751E04C20A801E300A07751E01C20A8014303A
:2003E6000809751E02C206C2088008300705751E05C207E51E24F650030206A4E51E240B4C
:2004060083F582E51E240E83F583E473A46115C99140F4A877260606060505050404040437
:2004260030032B85148212021F75F00AE515849006D993FF8F1275F00AE51584E5F0900623
:20044600D993FF8F1374014511F5110206CF9006E3E493FF8F109006E3E493FF8F1190062E
:20046600E3E493FF8F129006E3E493FF8F130206CF9006E5E493FF8F109006E6E493FF8F03
:20048600119006E3E493FF8F1230020B9006E7E493FF8F130206CF9006E8E493FF8F130274
:2004A60006CF851A8212021F30041E75F00AE51B849006D993FF8F1275F00AE51B84E5F05E
:2004C6009006D993FF8F1380109006E3E493FF8F129006E3E493FF8F13300109E51A24F471
:2004E60040030206CF74014511F5110206CF300408851A8212021F80109006E3E493FF8F96
:20050600109006E3E493FF8F1175F00AE51B849006D993FF8F1275F00AE51B84E5F0900643
:20052600D993FF8F13300109E51A24F440030206CF74014511F5110206CF30032B851A8216
:2005460012021F75F00AE51B849006D993FF8F1275F00AE51B84E5F09006D993FF8F1374EE
:20056600014511F5110206CF9006E3E493FF8F109006E3E493FF8F119006E3E493FF8F1294
:200586009006E3E493FF8F130206CF3001129006DAE493FF8F109006DBE493FF8F1180100E
:2005A6009006DBE493FF8F109006DDE493FF8F119006E4E493FF8F129006E3E493FF8F1304
:2005C6000206CF85148212021F30041E75F00AE515849006D993FF8F1275F00AE51584E53D
:2005E600F09006D993FF8F1380109006E3E493FF8F129006E3E493FF8F13300109E514245A
:20060600F440030206CF74014511F5110206CF30040885148212021F80109006E3E493FF15
:200626008F109006E3E493FF8F1175F00AE515849006D993FF8F1275F00AE51584E5F090A5
:2006460006D993FF8F13300109E51424F440030206CF74014511F5110206CF75F00AE5150B
:20066600849006D993FF8F1075F00AE51584E5F09006D993FF8F1175F00AE516849006D990
:2006860093FF8F1275F00AE51684E5F09006D993FF8F1330033374014511F511802B851440
:2006A6008212021F75F00AE515849006D993FF8F1275F00AE51584E5F09006D993FF8F138B
:0F06C60030030674014511F5111201F302026CA5
:1006D900FC24BAAE66CEDEA4FEEE0056F6586E16BF
:06004000E478FFF6D8FD94
:20001E007900E94400601B7A009006E9780175A000E493F2A308B8000205A0D9F4DAF27599
:02003E00A0FF21
:200046007800E84400600A790175A000E4F309D8FC7800E84400600C7900900001E4F0A3B8
:04006600D8FCD9FAEF
:0D0011007581221206D5E582600302000E03
:0406D5007582002208
:00000001FF
