:0400000002001132B7
:03000B0002018966
:20006A0075270C752800752937752A14752B05752C04752D0C752E01752F0075300075311E
:20008A0000753200753300D200C201D202C203C204C205C206C207C208C209C20AC20BC2CB
:0800AA000CC20DC20E02000E93
:03000E000202BB30
:2000B20020B42074D82531402BE531FF04F5317402B53104C208D2077428B53117C20AD2B4
:2000D200098011753100300702D208C207300902D20AC20920B51F74D82532402AE532FFF9
:2000F20004F5327402B53204C20CD20B7428B53216C20ED20D22753200300B02D20CC20BBE
:20011200300D02D20EC20D22752F0075300022052F743CB52F03752F00220530743CB530F7
:20013200067530000201212205277418B52703752700220528743CB52809752800300003D4
:2001520002013A220529743CB5290975290030000312014530060302012C22052D7418B543
:200172002D03752D0022052E743CB52E09752E0030000302016D22C022C0E0C0F0C082C00E
:2001920083C007C006C005C004C003C002C001C000C0D075D008758AD5758C3C30001D155E
:2001B2002AE52A7010752A14D20375D00012015675D0088007740AB52A02C203152BE52BF6
:2001D2007005752B05B204152CE52C7005752C04D20575D0001200B275D008D0D0D000D064
:2001F20001D002D003D004D005D006D007D083D082D0F0D0E0D0223278FA79FAD8FED9FE26
:2002120022AE82AF83C007C00612020AD006D007EE24FFFCEF34FFFD8C068D07EC4D70E510
:200232002243B00F7F00EF2423F987068E90EF700C9007A4E493FDEEB5050280118FF00556
:20025200F07401800225E0D5F0FBF4FE52B0C00712020AD00743B00F0FBF040040C822AF83
:200272008230010E75F00CEF84E5F0FE70067E0C80028F0675F00AEE849007A493FF8F237D
:2002920075F00AEE84E5F09007A493FF8F242275900043B004758901758C3C758AD5D2B95D
:2002B200D2A9D28CD2AFD2B7221202A130022B300028E527B52D23E528B52E1EE529700A16
:2002D2007409B5330280037533097409B53315300304B2B7800ED2B7800A7409B5330575D7
:2002F2003300D2B7E53324F5500302045AE533240B83F582E533240F83F583E4735A502A9A
:2003120004ECA6643A8E25C10404040403030303030303200806200C03020478753300D2A9
:20033200B7C208C20C020478300708753308C207020478300B08120178C20B020478200D62
:2003520003020478200503020478120178C205020478300708753307C207020478300B081C
:2003720012016DC20B020478200D0302047820050302047812016DC20502047830070875D3
:200392003300C207020478200B03020478B202C20B02047830090A753306C207C20902049B
:2003B20078200803020478753308C208020478300C08753300C20C02047830090612011A6E
:2003D200020478300A07C208C20A020478200803020478B206C208020478300C0875330A99
:2003F200C20C020478200803020478B201C208020478300709753300C207D2008068300B55
:200412000A120145752900C20B805B300D58300555120145C205804EC2003007077533036B
:20043200C2078042300B0A12013A752900C20B8035300D3230052F12013AC2058028300CA2
:2004520025753304C20C801E300C07753301C20C8014300909753302C207C20980083008BF
:2004720005753305C208E53324F5500302076FE533240B83F582E533240F83F583E4736FA5
:200492002CE0945CC17529F8A712070706060605050504040630032B85278212027175F08B
:2004B2000AE528849007A493FF8F2575F00AE52884E5F09007A493FF8F2674014524F524C0
:2004D20002079A9007AEE493FF8F239007AEE493FF8F249007AEE493FF8F259007AEE49361
:2004F200FF8F2602079A9007B0E493FF8F239007B1E493FF8F249007AEE493FF8F25300212
:200512000B9007B2E493FF8F2602079A9007B3E493FF8F2602079A852D8212027130041E84
:2005320075F00AE52E849007A493FF8F2575F00AE52E84E5F09007A493FF8F26801090079E
:20055200AEE493FF8F259007AEE493FF8F26300109E52D24F4400302079A74014524F52400
:2005720002079A300408852D8212027180109007AEE493FF8F239007AEE493FF8F2475F001
:200592000AE52E849007A493FF8F2575F00AE52E84E5F09007A493FF8F26300109E52D245A
:2005B200F4400302079A74014524F52402079A30032B852D8212027175F00AE52E84900701
:2005D200A493FF8F2575F00AE52E84E5F09007A493FF8F2674014524F52402079A9007AEE3
:2005F200E493FF8F239007AEE493FF8F249007AEE493FF8F259007AEE493FF8F2602079AD1
:2006120075F00AE52F849007A493FF8F2375F00AE52F84E5F09007A493FF8F2475F00AE592
:2006320030849007A493FF8F2575F00AE53084E5F09007A493FF8F263006062003030207A9
:200652009A74014524F52402079A3001129007A5E493FF8F239007A6E493FF8F2480109027
:2006720007A6E493FF8F239007A8E493FF8F249007AFE493FF8F259007AEE493FF8F260249
:20069200079A85278212027130041E75F00AE528849007A493FF8F2575F00AE52884E5F04C
:2006B2009007A493FF8F2680109007AEE493FF8F259007AEE493FF8F26300109E52724F4D9
:2006D200400302079A74014524F52402079A30040885278212027180109007AEE493FF8FBF
:2006F200239007AEE493FF8F2475F00AE528849007A493FF8F2575F00AE52884E5F090076A
:20071200A493FF8F26300109E52724F4400302079A74014524F52402079A75F00AE52884FE
:200732009007A493FF8F2375F00AE52884E5F09007A493FF8F2475F00AE529849007A49304
:20075200FF8F2575F00AE52984E5F09007A493FF8F2630033374014524F524802B85278246
:2007720012027175F00AE528849007A493FF8F2575F00AE52884E5F09007A493FF8F2630DA
:0E079200030674014524F5241202330202BE50
:1007A400FC24BAAE66CEDEA4FEEE0056F6586E16F3
:06004000E478FFF6D8FD94
:20001E007900E94400601B7A009007B4780175A000E493F2A308B8000205A0D9F4DAF275CD
:02003E00A0FF21
:200046007800E84400600A790175A000E4F309D8FC7800E84400600C7900900001E4F0A3B8
:04006600D8FCD9FAEF
:0D0011007581331207A0E582600302000E26
:0407A000758200223C
:00000001FF
