:0400000002001132B7
:03000B0002018966
:20006A0075270C752800752937752A14752B05752C04752D0C752E01752F0075300075311E
:20008A0000753200753300D200C201D202C203C204C205C206C207C208C209C20AC20BC2CB
:0800AA000CC20DC20E02000E93
:03000E000202A942
:2000B20020B42074D82531402BE531FF04F5317402B53104C208D2077428B53117C20AD2B4
:2000D200098011753100300702D208C207300902D20AC20920B51F74D82532402AE532FFF9
:2000F20004F5327402B53204C20CD20B7428B53216C20ED20D22753200300B02D20CC20BBE
:20011200300D02D20EC20D22752F0075300022052F743CB52F03752F00220530743CB530F7
:20013200067530000201212205277418B52703752700220528743CB52809752800300003D4
:2001520002013A220529743CB5290975290030000312014530060302012C22052D7418B543
:200172002D03752D0022052E743CB52E09752E0030000302016D22C022C0E0C0F0C082C00E
:2001920083C007C006C005C004C003C002C001C000C0D075D008758AD5758C3C30001D155E
:2001B2002AE52A7010752A14D20375D00012015675D0088007740AB52A02C203152BE52BF6
:2001D2007005752B05B204152CE52C7005752C04D20575D0001200B275D008D0D0D000D064
:2001F20001D002D003D004D005D006D007D083D082D0F0D0E0D0223278FA79FAD8FED9FE26
:2002120022AE82AF83C007C00612020AD006D007EE24FFFCEF34FFFD8C068D07EC4D70E510
:200232002243B00F7F00EF2423F987908FF005F07401800225E0D5F0FBF452B0C0071202C2
:200252000AD00743B00F0FBF040040DA22AF8230010E75F00CEF84E5F0FE70067E0C8002F2
:200272008F0675F00AEE8490079293FF8F2375F00AEE84E5F090079293FF8F24227590003E
:2002920043B004758901758C3C758AD5D2B9D2A9D28CD2AFD2B72212028F30022B3000285D
:2002B200E527B52D23E528B52E1EE529700A7409B5330280037533097409B5331530030439
:2002D200B2B7800ED2B7800A7409B53305753300D2B7E53324F55003020448E533240B83CB
:2002F200F582E533240F83F583E473483E18F2DA9452287C13AF0404040303030303030301
:2003120003200806200C03020466753300D2B7C208C20C020466300708753308C20702040C
:2003320066300B08120178C20B020466200D03020466200503020466120178C20502046650
:20035200300708753307C207020466300B0812016DC20B020466200D0302046620050302A6
:20037200046612016DC205020466300708753300C207020466200B03020466B202C20B0215
:20039200046630090A753306C207C209020466200803020466753308C208020466300C082F
:2003B200753300C20C02046630090612011A020466300A07C208C20A0204662008030204FD
:2003D20066B206C208020466300C0875330AC20C020466200803020466B201C20802046607
:2003F200300709753300C207D2008068300B0A120145752900C20B805B300D58300555126C
:200412000145C205804EC200300707753303C2078042300B0A12013A752900C20B803530D7
:200432000D3230052F12013AC2058028300C25753304C20C801E300C07753301C20C801484
:20045200300909753302C207C2098008300805753305C208E53324F5500302075DE53324A8
:200472000B83F582E533240F83F583E4735D1ACE824AAF6317E695000707060606050505E4
:2004920004040630032B85278212025F75F00AE5288490079293FF8F2575F00AE52884E5E9
:2004B200F090079293FF8F2674014524F52402078890079CE493FF8F2390079CE493FF8FAF
:2004D2002490079CE493FF8F2590079CE493FF8F2602078890079EE493FF8F2390079FE423
:2004F20093FF8F2490079CE493FF8F2530020B9007A0E493FF8F260207889007A1E493FF6A
:200512008F26020788852D8212025F30041E75F00AE52E8490079293FF8F2575F00AE52E93
:2005320084E5F090079293FF8F26801090079CE493FF8F2590079CE493FF8F26300109E576
:200552002D24F4400302078874014524F524020788300408852D8212025F801090079CE45E
:2005720093FF8F2390079CE493FF8F2475F00AE52E8490079293FF8F2575F00AE52E84E569
:20059200F090079293FF8F26300109E52D24F4400302078874014524F52402078830032BCB
:2005B200852D8212025F75F00AE52E8490079293FF8F2575F00AE52E84E5F090079293FF77
:2005D2008F2674014524F52402078890079CE493FF8F2390079CE493FF8F2490079CE4936B
:2005F200FF8F2590079CE493FF8F2602078875F00AE52F8490079293FF8F2375F00AE52F50
:2006120084E5F090079293FF8F2475F00AE5308490079293FF8F2575F00AE53084E5F0901D
:20063200079293FF8F2630060620030302078874014524F524020788300112900793E49369
:20065200FF8F23900794E493FF8F248010900794E493FF8F23900796E493FF8F2490079D16
:20067200E493FF8F2590079CE493FF8F2602078885278212025F30041E75F00AE5288490CC
:20069200079293FF8F2575F00AE52884E5F090079293FF8F26801090079CE493FF8F2590A7
:2006B200079CE493FF8F26300109E52724F4400302078874014524F52402078830040885DF
:2006D200278212025F801090079CE493FF8F2390079CE493FF8F2475F00AE528849007927C
:2006F20093FF8F2575F00AE52884E5F090079293FF8F26300109E52724F4400302078874B7
:20071200014524F52402078875F00AE5288490079293FF8F2375F00AE52884E5F090079248
:2007320093FF8F2475F00AE5298490079293FF8F2575F00AE52984E5F090079293FF8F26AC
:2007520030033374014524F524802B85278212025F75F00AE5288490079293FF8F2575F00A
:1C0772000AE52884E5F090079293FF8F2630030674014524F5241202330202AC64
:10079200FC24BAAE66CEDEA4FEEE0056F6586E1605
:06004000E478FFF6D8FD94
:20001E007900E94400601B7A009007A2780175A000E493F2A308B8000205A0D9F4DAF275DF
:02003E00A0FF21
:200046007800E84400600A790175A000E4F309D8FC7800E84400600C7900900001E4F0A3B8
:04006600D8FCD9FAEF
:0D00110075813312078EE582600302000E38
:04078E00758200224E
:00000001FF
