:0400000002001132B7
:03000B0002014CA3
:20006A0075140C751500751637751714751805751904751A0C751B01751C00751D00751EEF
:1F008A0000751F00D200C201D202C203C204C205C206C207C208C209C20AC20B02000E39
:03000E0002026C7F
:2000A90020B41E74D8251C4024E51CFF04F51C7402B51C04C207D2067428B51C10D208807C
:2000C9000C751C00300602D207C206C20820B51D74D8251D4023E51DFF04F51D7402B51D95
:2000E90004C20AD2097428B51D0FD20B22751D00300902D20AC209C20B2205147418B514FF
:2001090003751400220515743CB51509751500300003020103220516743CB516097516007C
:2001290030000302010E22051A7418B51A03751A0022051B743CB51B09751B0030000302B4
:20014900013022C022C0E0C0F0C082C083C007C006C005C004C003C002C001C000C0D0756B
:20016900D008758AD5758C3C30001D1517E5177010751714D20375D00012011F75D00880DF
:2001890007740AB51702C2031518E5187005751805B2041519E5197005751904D20575D008
:2001A900001200A975D008D0D0D000D001D002D003D004D005D006D007D083D082D0F0D0BD
:2001C900E0D0223278FA79FAD8FED9FE22AE82AF83C007C0061201CDD006D007EE24FFFCD5
:2001E900EF34FFFD8C068D07EC4D70E52243B00F7F00EF2410F987908FF005F074018002E2
:2002090025E0D5F0FBF452B0C0071201CDD00743B00F0FBF040040DA22AF8230010E75F0B7
:200229000CEF84E5F0FE70067E0C80028F0675F00AEE8490070A93FF8F1075F00AEE84E5D3
:20024900F090070A93FF8F112275900043B004758901758C3C758AD5D2B9D2A9D28CD2AFBF
:20026900D2B72212025230022E30002BE514B51A26E515B51B21E516700D7409B51E028086
:2002890006751E09751F097409B51E18300304B2B78011D2B7800D7409B51E08751E007507
:2002A9001F00D2B7E51E24F65003020403E51E240B83F582E51E240E83F583E47303F6CD9B
:2002C900A388671FF24CDA04030303030303020302200706200A0302042A751E00751F007E
:2002E900D2B7C207C20A02042A30060B751E08751F08C20602042A30090812013BC20902DB
:20030900042A200B0302042A20050302042A12013BC20502042A30060B751E07751F07C273
:200329000602042A300908120130C20902042A200B0302042A20050302042A120130C2053F
:2003490002042A30060B751E00751F00C20602042A20090302042AB202C20902042A3008C1
:200369000D751F06751E06C206C20802042A20070302042A751F08751E08C20702042A30B8
:200389000A0B751E00751F00C20A02042A20070302042AB201C20702042A30060D751E0040
:2003A900751F00C206D20002042A30090A12010E751600C209806A300B6730056412010ED6
:2003C900C205805DC20030060A751E03751F03C206804E30090A120103751600C20980413B
:2003E900300B3E30053B120103C2058034300A31751F04751E04C20A8027300A0A751F0194
:20040900751E01C20A801A30080C751F02751E02C206C208800B300708751F05751E05C21B
:2004290007E51F24F650030206D5E51F240B83F582E51F240E83F583E473D59246FAC271CF
:2004490025D9A8570606060505050504040430032B85148212022275F00AE5158490070A27
:2004690093FF8F1275F00AE51584E5F090070A93FF8F1374014511F511020700900714E440
:2004890093FF8F10900714E493FF8F11900714E493FF8F12900714E493FF8F130207009043
:2004A9000716E493FF8F10900717E493FF8F11900714E493FF8F1230020B900718E493FF19
:2004C9008F13020700900719E493FF8F13020700851A8212022230041E75F00AE51B84906B
:2004E900070A93FF8F1275F00AE51B84E5F090070A93FF8F138010900714E493FF8F129030
:200509000714E493FF8F13300109E51A24F4400302070074014511F5110207003004088567
:200529001A821202228010900714E493FF8F10900714E493FF8F1175F00AE51B8490070A3B
:2005490093FF8F1275F00AE51B84E5F090070A93FF8F13300109E51A24F4400302070074B1
:20056900014511F51102070030032B851A8212022275F00AE51B8490070A93FF8F1275F02B
:200589000AE51B84E5F090070A93FF8F1374014511F511020700900714E493FF8F109007E9
:2005A90014E493FF8F11900714E493FF8F12900714E493FF8F1302070030011290070BE4B1
:2005C90093FF8F1090070CE493FF8F11801090070CE493FF8F1090070EE493FF8F1190078E
:2005E90015E493FF8F12900714E493FF8F1302070085148212022230041E75F00AE515846A
:2006090090070A93FF8F1275F00AE51584E5F090070A93FF8F138010900714E493FF8F1214
:20062900900714E493FF8F13300109E51424F4400302070074014511F51102070030040841
:200649008514821202228010900714E493FF8F10900714E493FF8F1175F00AE515849007AB
:200669000A93FF8F1275F00AE51584E5F090070A93FF8F13300109E51424F4400302070006
:2006890074014511F51102070075F00AE5158490070A93FF8F1075F00AE51584E5F090075F
:2006A9000A93FF8F1175F00AE5168490070A93FF8F1275F00AE51684E5F090070A93FF8FAE
:2006C9001330033374014511F511802B85148212022275F00AE5158490070A93FF8F127595
:1D06E900F00AE51584E5F090070A93FF8F1330030674014511F5111201F602026F4C
:10070A00FC24BAAE66CEDEA4FEEE0056F6586E168D
:06004000E478FFF6D8FD94
:20001E007900E94400601B7A0090071A780175A000E493F2A308B8000205A0D9F4DAF27567
:02003E00A0FF21
:200046007800E84400600A790175A000E4F309D8FC7800E84400600C7900900001E4F0A3B8
:04006600D8FCD9FAEF
:0D001100758122120706E582600302000ED1
:0407060075820022D6
:00000001FF
