:02000000011DE0
:02000B002113BF
:10001B00215811DB115620B40231DF20B502511CDF
:10002B002008F13007113009EBC28ED2B7C207C2DC
:10003B0009C20AD2B780DDE522653A70D7E52365A0
:10004B003B70D1D207C20AD28E80C931A8300107CA
:10005B00300004D2B3801AE5309002A093F59042A1
:10006B0090D2B3C2B03176300207300004D2B080E8
:10007B001AE5319002A093F5904290D2B0C2B13103
:10008B0076300307300004D2B1801AE5329002A01B
:10009B0093F5904290D2B1C2B23176300407300062
:1000AB0004D2B28012E5339002A093F5904290D225
:1000BB00B2C2B33176D2B320050620061020000D54
:1000CB00740A9002A093F5904290318822D290222C
:1000DB00752000752100752212752300752400759B
:1000EB002503753A06753B01758911758C3C758A2C
:1000FB00B5758BCA758DFE7CFF7DFF7E14D2AFD29A
:10010B00A9D28CD2ABD2B922758AC5758C3CC0E012
:10011B00C0D0DE02800AC3740A9E402CD200802815
:10012B00C2007E14E52404D4F524B4601B752400AE
:10013B00E52304D4F523B4600F752300E52204D422
:10014B00F522B42403752200D0D0D0E032758BCACF
:10015B00758DFE200A02B2B7DD0C7DFFDC08D525BC
:10016B0005752503D209327AA08003007A0179FF45
:10017B007803D8FED9FADAF6227A408003007A01A6
:10018B0079557802D8FED9FADAF6227A0180030083
:10019B007A0179887803D8FED9FADAF62230060488
:1001AB00E53A8002E522FF793054F0C4F709EF54A9
:1001BB000FF709300604E53B8002E523FF54F0C43A
:1001CB00F709EF540FF709E52454F0C4F709E524B8
:1001DB00540FF72230B4FD317220050C200609D2E2
:1001EB00B7C209D20AD2B722D208200115200217B2
:1001FB00200319200403D20122C204C208C205C283
:10020B000622C201D20222C202D20322C203D204AC
:10021B002230B5FD317230080351382220050620FB
:10022B000608D20522D206C20522C20622200131BF
:10023B0020023F200345E533FF51978F3300E53014
:10024B00C44531F52AE532C44533F52B200504208E
:10025B00060822852A22852B2322852A3A852B3BC9
:10026B0022E530FF6409700575300080D00F8F30A8
:10027B0080CBE531FF51978F3180C2E532FF6406A9
:10028B00700575320080B60F8F3280B16409700330
:10029B007F00220F22FD25BBAF67CFDFA5FFEFFE4F
:00000001FF
