:02000000011DE0
:02000B00210EC4
:10001B00216611D6115320B402318020B50231BDB7
:10002B003007113009EEC28ED2B7C207C209C20A1D
:10003B00D2B780E0E522653A70DAE523653B70D4F0
:10004B00D207C20AD28E80CC313730010730000480
:10005B00D2B3801AE53090024193F5904290D2B31F
:10006B00C2B03158300207300004D2B0801AE531EB
:10007B0090024193F5904290D2B0C2B13158300307
:10008B0007300004D2B1801AE53290024193F5900B
:10009B004290D2B1C2B23158300407300004D2B210
:1000AB008012E53390024193F5904290D2B2C2B3E5
:1000BB003158D2B320050620060E20000B740A908F
:1000CB00024193F590429022D29022752000752127
:1000DB0000752212752300752400752503753A06E9
:1000EB00753B01758911758C3C758AB5758BCA7515
:1000FB008DFE7CFF7DFF7E14D2AFD2A9D28CD2AB0A
:10010B00D2B922758C3C758AB5DE207E1405247419
:10011B003CB524177524000523743CB5230D7523BA
:10012B000005227418B5220375220032782279302B
:10013B007B03E675F00A84F709A7F00908DBF322C5
:10014B007AFA3158315831583158DAF62278FA792F
:10015B00FAD8FED9FE227832D8FE22758BCA758D5D
:10016B00FE200A02B2B7DD0C7DFFDC08D525057534
:10017B002503D2093230B4FD316120050C2006096C
:10018B00D2B7C209D20AD2B722D208200115200257
:10019B0017200319200403D20122C204C208C2058E
:1001AB00C20622C201D20222C202D20322C203D24F
:1001BB00042230B5FD316130080331D92220050608
:1001CB00200608D20522D206C20522C20622200131
:1001DB003120023F200345E533FF51388F3300E5D3
:1001EB0030C44531F52AE532C44533F52B200504DF
:1001FB0020060822852A22852B2322852A3A852B45
:10020B003B22E530FF6409700575300080D00F8FFD
:10021B003080CBE531FF51388F3180C2E532FF643E
:10022B0006700575320080B60F8F3280B16409708D
:10023B00037F00220F22FD25BBAF67CFDFA5FFEFAA
:01024B00FEB4
:00000001FF
